:020000021000EC
:10000000000004200D9C0100459C0100CD7F0100F3
:10001000499C0100D97F0100DF7F01000000000042
:100020000000000000000000000000007D2F010023
:10003000519C010000000000173001002730010032
:1000400061D401000D540100579C0100579C010030
:10005000579C0100579C0100579C0100579C0100D0
:10006000579C0100579C0100579C0100579C0100C0
:10007000579C0100F5D50100579C01002554010053
:10008000579C0100579C0100579C0100579C0100A0
:10009000579C0100579C0100579C0100579C010090
:1000A000579C0100579C0100579C0100579C010080
:1000B000579C010009100100000000000000000032
:1000C000579C0100579C0100579C0100579C010060
:1000D000579C0100579C0100579C0100579C010050
:1000E000579C0100579C0100579C01000000000034
:1000F00000000000579C010000000000579C010018
:1001000010B5054C237833B9044B13B10448AFF351
:1001100000800123237010BDF00F002000000000BC
:100120009C64020008B5034B1BB103490348AFF3BD
:10013000008008BD00000000F40F00209C64020055
:10014000154B002B08BF134B9D46A3F5803A0021A9
:100150008B460F461348144A121A10F039FE0F4B03
:10016000002B00D098470E4B002B00D09847002062
:10017000002104000D000D48002802D00C4808F0B2
:10018000ADFC10F035F92000290004F075FF08F0EF
:10019000A2FC00BF000008000000042000000000D6
:1001A000D54F0100F00F002068B40020DD8A010067
:1001B000000000002DE9F04F85B0DFF8ACB0264D0F
:1001C00003919046814600244FF0000A039B9C4215
:1001D0003BD0B8F1010F24D01DD3B8F1020F28D0C5
:1001E0000623009332463B461B4802F0A3FDB8F1BC
:1001F000020F03D11949284602F09FFC18492846EE
:1002000002F09BFC0421F9E802232846009102F049
:1002100093FD0134DAE720460DF090FB06460F46C9
:10022000DEE720460DF08AFB52465B460DF01AFDD4
:10023000F4E720460DF082FB52465B460DF0E8FBEA
:100240000022084B0DF0E4FBE8E7034805B0BDE8E9
:10025000F04F02F079BC00BFE81700209043020085
:10026000535702000000903F00005940000000007A
:100270002DE9F0474A4F2DED028B3B688AB0002BE9
:1002800000F0838002F0AEFD464C474EDFF824813B
:10029000DFF83C91DFF83CA120609FED3F8B00250B
:1002A00039F915000DF04AFBA8EC028BE6E80201D3
:1002B00002F098FD2368DAF80020C01A9042F7D3C4
:1002C00001351344402D2360EAD1384B3649384C70
:1002D0000022CDE9002302A82B46364A02AE00F0E8
:1002E0006AFD0FCE0FC496E8070003C402A822706F
:1002F00000F0C7F83049314802F02CFC01222946B1
:100300002948FFF757FF01221146A4F1180000F019
:100310004FFA2B49294802F01DFC012229462248A8
:10032000FFF748FF0121A4F1180000F0ADF82549BE
:10033000224802F00FFC002229461B48FFF73AFF33
:1003400021491E4802F006FC002229461948FFF701
:1003500031FFA4F1180000F0FBF91C49174802F026
:10036000F9FB022220211048FFF724FFA4F1180016
:1003700000F08EFC0623009302460B460F4802F065
:10038000DBFC4FF4FA6002F039FD00233B600AB059
:10039000BDEC028BBDE8F08700000000000000000B
:1003A000341200203010002040140020000059407A
:1003B000101000204012002093430200E817002094
:1003C00099430200A7430200BD430200D843020044
:1003D000341000203812002010B5054C204600F0E3
:1003E0004FF82046034A0449BDE8104008F071BBAD
:1003F00010100020000200208304010008B50F4BFC
:100400000F4842F210724FF416511A6000F0DCFFF0
:100410000B4801F02FF80028FAD00A490A4800F0EA
:10042000A9FD4FF47A520121074800F01BFD20B9C5
:100430000649034802F08EFBFEE708BD3812002093
:10044000E81700205104010040160020ED4302008F
:1004500038B5084D284600F0C9FC07490446024655
:10046000284600F0D5FC022394FBF3F4034B1C60F8
:1004700038BD00BF40160020341000203412002088
:1004800070477047000000002DE9F04F2DED028B02
:10049000058895B0044600206E1E0A916D0803463B
:1004A00081B2B14227DA8B421AD92769CA004FEAD2
:1004B000C30CB9186744D7E900ABD1E90089C1E999
:1004C00000AB0A99C7E9008951B961690A446144DE
:1004D000D2E90089D1E900ABC2E900ABC1E90089EA
:1004E0002A46934203D39B1A9BB25208F9E713445E
:1004F0009BB20130D4E79FED8E7B8DED007B9FEDAD
:100500008E7B9FED8B8B8DED027B002309934FF04B
:10051000010A227E9DF824309A4240F2DC809FED51
:10052000887B4FEA4A039BB28DED068B8DED047BF1
:10053000129300230893BDF82050554580F09C800D
:1005400023881393139BAB4266D90AEB050B2769EB
:1005500066691FFA8BFB4FEACB0B07EB0B0393ED9E
:10056000007BB34451EC170B0B93DDE904238DEDB5
:100570000C7BDBE900890DF04BFADDE90623CDE9C0
:100580000E01404649460DF043FA02460B46DDE9AE
:100590000E010DF085F8DDE90423CDE90E0140469A
:1005A00049460DF035FADDE9062380468946DDE946
:1005B0000C010DF02DFA02460B46404649460DF05F
:1005C00071F84FEAC5084744DDE90E23CDE90C0177
:1005D000D7E900010DF064F80B9BC3E90001464424
:1005E000D6E90001DDE90C230DF05AF8CBE9000152
:1005F000D7E90001DDE90E230DF054F8C7E9000149
:10060000DDE90C23D6E900010DF04CF8129B1D44E6
:10061000C6E90001ADB295E7DDE90423DDE9020199
:100620000DF0F6F9DDE9062306460F46DDE9000187
:100630000DF0EEF902460B46304639460DF030F823
:10064000DDE9062380468946DDE902010DF0E0F987
:10065000DDE9042306460F46DDE900010DF0D8F977
:100660003B4632460DF01EF8089B0133CDE90601EA
:100670000893CDE904895EE7DDE9022300203249D1
:100680000DF00EF80022314B0DF0C2F90DF0A8FE6E
:100690000022CDE900012C4BDDE902010DF002F84A
:1006A0002A4B00220DF0B4F90DF09AFE0A9B012BA3
:1006B000CDE9020109D1009B1093019B03F1004396
:1006C00011939DED107B8DED007B099BDDF848A01B
:1006D000013309931DE70A9B012B22D0B4F800A037
:1006E0000025ABB29A451CD950460DF027F9276971
:1006F0004FEAC50B5F4402460B4680468946D7E960
:1007000000010DF0AFFA6669C7E900015E44D6E961
:10071000000142464B460DF0A5FA0135C6E900013D
:10072000DFE715B0BDEC028BBDE8F08FAFF30080C2
:100730000000000000000000000000000000F0BF0A
:10074000000000000000F03F0000F03F0000E03F2C
:100750002DE9F0470023044621889AB2914203F123
:10076000010521D9D300226902EB030A626913440F
:10077000D3E90089DAE90023104619460DF048F95B
:10078000424606460F464B46404649460DF040F964
:100790000B460246394630460CF084FF0DF020FE31
:1007A0002B46CAE90001D7E7BDE8F087000000004A
:1007B0002DE9F04F03888BB083461846CDE9081227
:1007C00003930DF0ABF8D04B00220CF069FF039BB4
:1007D000CDE900015B1007934FF0000A079A1FFA5A
:1007E0008AF09042069080F224820DF097F8DDE9BD
:1007F000002306460F460DF035FA089B013B0446E0
:100800000D46082B00F20582DFE813F009001D00F9
:1008100056007F00C900FB008201C401EC019AA3CD
:10082000D3E900230DF0F4F80DF092FD98A3D3E97D
:1008300000230DF0EDF802460B4697A1D1E9000127
:100840000CF02EFF11E090A3D3E900230DF0E0F8A7
:100850000DF07EFD02460B460020AB490CF020FF58
:100860008DA3D3E900230DF0D3F804460D46069B73
:10087000039ADBF810700133D31A1FFA8AF607EBDC
:10088000C60607EBC307099B012BD6E9000140F020
:10089000C38102460B46204629460DF0B9F8C6E949
:1008A000000122462B46D7E900010DF0B1F8C7E957
:1008B00000010AF1010A91E70022944BDDE90001F1
:1008C0000DF0A6F802460B46304639460CF0E8FE1D
:1008D0000022002304460D460DF02AFB70B122468B
:1008E0002B46104619460CF0DDFEDDE900230DF025
:1008F000B9F902460B4600208349A1E705F1004300
:1009000004940593DDE90423EBE75FA3D3E9002317
:100910000DF07EF80DF01CFD61A3D3E900238046A5
:100920008946204629460DF073F80DF011FD5EA3AF
:10093000D3E9002306460F46204629460DF068F805
:100940000DF006FD5AA3D3E9002304460D464046A8
:1009500049460DF05DF802460B4657A1D1E900016A
:100960000CF09EFE56A3D3E900238046894630460C
:1009700039460DF04DF802460B46404649460CF00C
:1009800091FE51A3D3E9002306460F46204629468F
:100990000DF03EF802460B463046394650E73AA382
:1009A000D3E900230DF034F80DF0D2FC3CA3D3E9D9
:1009B000002306460F46204629460DF029F80DF083
:1009C000C7FC43A3D3E9002304460D46304639460D
:1009D0000DF01EF802460B463FA1D1E900010CF0D4
:1009E0005FFE3FA3D3E9002306460F462046294673
:1009F0000DF00EF802460B46304639460CF052FE1A
:100A000033E721A3D3E900230DF002F80DF0A0FC99
:100A100023A3D3E9002380468946204629460CF0CB
:100A2000F7FF0DF095FC20A3D3E9002306460F46FF
:100A3000204629460CF0ECFF0DF08AFC2AA3D3E9EE
:100A4000002304460D46404649460CF0E1FF0246AD
:100A50000B4627A1D1E900010CF022FE26A3D3E921
:100A6000002380468946304639460CF0D1FF0246C5
:100A70000B46404649460CF015FE21A3D3E900235E
:100A800006460F4682E700BF68A17454FB21194057
:100A9000713D0AD7A370DD3F48E17A14AE47E13FCC
:100AA0002CBB1E54FB2129400E79577F7CD9324044
:100AB000B9E00CFE7E31DF3F2AA73D25E7C4D63FD3
:100AC000ABB184B53176C23FDEE8633E20D0893FCA
:100AD000B9FC87F4DBD7DF3FBCE82B483316DB3F9C
:100AE0002B6A300DC347B43F3B191C25AF4EDF3F87
:100AF00004B97A04ED44D73FA13193A8177CC13FD4
:100B0000189EF24300CB853F0000F03F0000E03F1D
:100B10004BA3D3E900230CF07BFF0DF019FC4AA393
:100B2000D3E9002380468946204629460CF070FF11
:100B30000DF00EFC46A3D3E9002306460F462046DF
:100B400029460CF065FF0DF003FC43A3D3E9002315
:100B500004460D46404649460CF05AFF02460B46F5
:100B60003FA1D1E900010CF09BFD3FA3D3E9002395
:100B700080468946304639460CF04AFF02460B460D
:100B8000404649460CF08EFD39A3D3E900230646C2
:100B90000F46FBE62AA3D3E900230CF039FF0DF042
:100BA000D7FB29A3D3E9002306460F462046294652
:100BB0000CF02EFF0DF0CCFB2FA3D3E9002304464D
:100BC0000D46304639460CF023FF02460B462CA159
:100BD000D1E900010CF064FD2BA3D3E90023064604
:100BE0000F4603E70022144BDDE900010CF010FF73
:100BF00004460D4602460B46304639460CF050FD81
:100C000022462B460DF02EF802460B460CF000FF54
:100C10006FE60024094D2AE622462B460DF022F805
:100C2000C6E9000122462B46D7E900010DF01AF86B
:100C30003DE60BB0BDE8F08F0000E03F0000F03F64
:100C400068A17454FB2119402CBB1E54FB21294080
:100C50000E79577F7CD932408EAF3DB32440DF3FC1
:100C6000F6285C8FC2F5D63FBD18CA897615C23FFB
:100C7000B2632310AFEB873FBD7ED29A30ABE03F2B
:100C80008984A570F3FCD13F52CCE6165F59C93F69
:100C90002DE9F04F9FED407B85B0B0F800A00469CE
:100CA0008DED027B83464FEA6A09012600256FF02D
:100CB0006048B14524DB06EB080704EBC70797ED56
:100CC000027BD7E9000153EC172B8DED007B0DF073
:100CD00011F990B1D7E90423DDE900010DF028F9FD
:100CE00058B1DDE90223DDE900010DF021F920B161
:100CF0009DED007B8DED027B35460136B6B2D8E71F
:100D0000A84404EBC80494ED047BD4E9006753ECD9
:100D1000172B304639468DED007B0CF0C1FCD4E931
:100D20000223CDE90201104619460CF0BBFC024635
:100D30000B46304639460CF0B3FCDDE900230CF0DD
:100D4000B1FC02460B46DDE902010CF08BFF0022EC
:100D5000134B0CF05DFE064628460F460CF0EEFDE8
:100D600002460B46304639460CF09CFCDBE9022378
:100D70000CF04EFEA945064614BF0AF1FF3050465E
:100D80000F460CF0DBFD02460B46304639460CF0B0
:100D900069FF05B0BDE8F08F000000000000000012
:100DA0000000E03F0023D8B241FA00F2D20703F17D
:100DB0000103F8D57047D0B5DDE90467C0E9041236
:100DC0000380C0E9026719460446FFF7EBFF20766F
:100DD0002046D0BD00F1804000F5E830002382B00D
:100DE000036003680193019B02B0704738B5074C5C
:100DF0004FF00055C4F88050BFF34F8FBFF36F8F93
:100E0000303000F0A1F9256038BD00BF00E100E0FE
:100E100038B5074C4FF00055C4F88050BFF34F8FE2
:100E2000BFF36F8F303000F063F9256038BD00BF2D
:100E300000E100E038B504460948C4E90223002572
:100E40004FF0FF33C4E90001C4E90433C4E90633B9
:100E5000256204F1300000F02FF92566204638BDE8
:100E60000C4402004FF0804370B50446C0E9041200
:100E7000D3F8000128B901201860D3F80001002838
:100E8000FBD0B2F57A5F05D04AF2C3239A4265D00F
:100E9000002070BD354B0122C3F820254FF02062A1
:100EA0000129C3F804255DD00229F1D12F4B00227E
:100EB000C3F80825A3692D4D207A013304BF1423FC
:100EC000A361237EC5F818350121C5F81C3501F052
:100ED000EFFF0021207A02F029F80021207901F0AB
:100EE000E7FF207A01F052FF0646207901F04EFF1D
:100EF000C5F84065C5F844054FF48070FFF76AFFF8
:100F00004FF48470FFF766FF4FF48270FFF762FFC3
:100F1000E06803230028C5F8043307DB0121C0B2D1
:100F200001F0C6FF0121207B02F000F804F130003F
:100F300000F0A4F80E4BE02283F81D234FF000527E
:100F4000C3F880211A60094901224FF48070C1F86A
:100F50000025FFF73FFF0A6010469AE7034B4FF06A
:100F6000A8529DE7014BC3F80815A3E700D0014044
:100F700000E100E0016670471F4B1B6870B5054635
:100F800053B34FF4807005F13004FFF723FF204680
:100F900000F0DAF8D8B9204600F0D1F8064620462D
:100FA00000F098F82B69154A5B00C2F86065B0FB49
:100FB000F3F32046C2F8643500F08CF80146204671
:100FC00000F0CEF82B6E33B1BDE8704018470B4BE4
:100FD0000022C3F8002570BD094B1B682BB14FF4EC
:100FE0008270BDE87040FFF7F5BE064B1B68002B12
:100FF000F1D04FF48470F4E700D1014000D00140FB
:1010000004D1014008D1014001210148FFF7B4BFDC
:101010004016002010B5074C1C221D2120461B2322
:10102000FFF708FF2046044A0449BDE8104007F0D6
:1010300050BD00BF401600200002002041100100FA
:1010400010B5044B044640F8303B00F00FF8204642
:1010500010BD00BF0C44020010B50446FFF7F0FFBE
:101060002046702107F050FF204610BD704710B594
:101070003021044607F048FF204610BD10B58169B5
:10108000044600690FF004FF2061D4E905010FF068
:10109000FFFEA2696061002120690FF099FEA2693C
:1010A000606900210FF094FE0023E362E361236294
:1010B0006362A36210BD000010B5054B03604FF4DE
:1010C000007304468361FFF7D9FF204610BD00BFBF
:1010D00024440200C36A063300EB83035A68C36AE0
:1010E000083300EB830380695B68D31AC01A70472A
:1010F00038B504460846E36A063304EB83035D68AB
:10110000E36A083304EB83035B68ED1A954228BF5A
:10111000154695B1E26AE36A083304EB8303596824
:10112000131D2A4654F8233019440FF053FDE36A87
:1011300004EB8304636A2B446362284638BDC36AA8
:10114000043350F823007047C36A063300EB83036F
:101150005A68C36A083300EB83004068101A70476E
:10116000C36A6BB90123C362C36A063300EB83030E
:101170005960C36A083300EB830000234360704763
:101180000023F0E730B5A1F11004002500F00F02B4
:10119000D3B2092ACCBF373330338B73CD730239C6
:1011A0008C424FEA1010F1D130BD22207047000070
:1011B00030B5012185B0192001F07AFE01211920F6
:1011C00001F0B4FE4FF080430022C3F85C2503F524
:1011D00088334FF48032C3F848230121C3F8082331
:1011E000212001F065FE0121202001F061FE012196
:1011F000212001F09BFE0121202001F097FE104BE1
:1012000001221A600F4A1368002BFCD00E4B0024F9
:10121000C3F80045C3F800450C4B0FCB6D4685E87D
:101220000F00234620464FF0FF3155F823200133AD
:10123000042BC2F80005C2F86015F6D105B030BD28
:101240000420004044210040002000402C440200C3
:1012500038B54FF0805504462146D5F8A800FFF771
:1012600091FFD5F8A40004F11001FFF78BFF2020B7
:1012700038BD000072B64FF08043B022C3F81C2581
:10128000BFF34F8F0549064BCA6802F4E06213436F
:10129000CB60BFF34F8F00BFFDE700BF00ED00E064
:1012A0000400FA0570470B6803604B6843608B6865
:1012B00083607047C3680BB19B6818477047002074
:1012C000704770B590F8343105461446F3B9036899
:1012D000DB69984704F47063B3F5407F04F0F003D2
:1012E0000CBF0721082104F00F02302B0CBF022392
:1012F0000123012A08D0901E42424241A869BDE85C
:101300007040006804F000BA0222F7E770BD10B523
:1013100090F8343104462BB9A369186804F04AFAEE
:101320000028F9D010BD38B590F834510446A5B95D
:1013300083695BB1186848B10368DB689847A369A3
:101340001D600421A06907F0DFFDA5610023C4F83A
:101350002431C4F82831C4F82C3138BD13B590F8C5
:10136000343104466BBBA369186804F0E5F940B357
:1013700007F086F8A3691868036801225B690DF11C
:1013800007019847D4F82C31B3F5807F16D0D4F8F4
:101390002C31B3F5807F11D0D4F824319DF807208B
:1013A000234483F82420D4F824310133DBB2C4F879
:1013B0002431D4F82C310133C4F82C3107F076F8FD
:1013C000D1E702B010BD00007FB590F8343104467B
:1013D0000D46002B34D1866926B9042007F080FD24
:1013E000A0610660A369186860BB4FF4867007F0BF
:1013F00077FD2B4694F9212094F92010064604F03D
:101400008BFCA3691E6094F92220531C06D0A069AE
:1014100094F923300068032104F08CFCA369186858
:1014200070B10A4B03930022094B01936946009463
:10143000029204F0DCF9039B13B19B68684698475D
:1014400004B070BD294604F04BF9DCE73C440200CF
:101450005D13010010B4D0E9013401686210E407A3
:1014600001EB020048BF8A585DF8044B48BFD358CF
:101470001847000008B590F834313BB1012001F065
:10148000BDFC0648BDE8084001F028BA82691AB1DF
:101490001368003318BF0123184608BDB41E00208E
:1014A00070B504460D4601F019FA30B1236829469B
:1014B00020461B6CBDE87040184770BDA0F5A070B9
:1014C000EEE7000013B590F834318DF807100446AC
:1014D0002BB1C9B20B48FFF7E3FF02B010BDA369FF
:1014E000186804F067F90028F9D0A3691868036840
:1014F00001221B690DF107019847013018BF012037
:10150000EBE700BFB41E00202DE9F04107468846F6
:10151000164601F0E3F970B10024A6420CD9351B40
:10152000402D28BF402508EB04012A46384600F02C
:10153000BBFE2C44F1E704462046BDE8F081A0F54F
:10154000A070E1E770B590F8343105460E461446B8
:101550002BB11048FFF7D8FF0446204670BDAB6999
:10156000186804F027F90028F9D0AB691868D0F89A
:10157000083101211B6B00F584709847AB6918682E
:10158000036822461B6931469847013008BF002492
:10159000E3E700BFB41E002030B50446C3B001F03D
:1015A00017F9D4F85832C3F5807398420546C4BF82
:1015B000D4F85852C5F580752A4601AB02A92046D9
:1015C00000F05CFF019902AB6D1A00221D44D4F8B3
:1015D0005832B3F5807F19D08A4217D0D4F85832E8
:1015E000B3F5807F10D0D4F85032A85C234483F840
:1015F0005001D4F850320133DBB2C4F85032D4F881
:1016000058320133C4F858320132E0E743B030BDFC
:1016100038B5044600F0F0FA2046FFF7BDFFD4F8D5
:101620005852204600F0F0FA284638BDA0F5A070C8
:10163000EEE7000010B590F8343104462BB10648AF
:10164000FFF7E6FF0446204610BD06F019FFD4F868
:101650002C4106F02BFFF6E7B41E002038B50446F7
:1016600000F0CAFA2046FFF797FFD4F858324BB182
:10167000D4F85432234493F85051204600F0C4FA71
:10168000284638BD4FF0FF35F7E7A0F5A070E5E735
:1016900010B590F8343104462BB10B48FFF7DEFF4C
:1016A0000446204610BD06F0EBFED4F82C313BB1C9
:1016B000D4F82801044494F8244006F0F7FEF0E73B
:1016C0004FF0FF34F9E700BFB41E002038B50446E0
:1016D00000F092FA2046FFF75FFFD4F85832A3B12A
:1016E000D4F85432234493F85051D4F8543201338F
:1016F000DBB2C4F85432D4F85832013BC4F8583243
:10170000204600F081FA284638BD4FF0FF35F7E754
:10171000A0F5A070DAE7000010B590F83431044667
:101720002BB11148FFF7D2FF0446204610BD06F04A
:10173000A7FED4F82C319BB1D4F82831234493F878
:101740002400D4F828310133DBB2C4F82831D4F8AE
:101750002C31013BC4F82C31044606F0A7FEE4E727
:101760004FF0FF34F9E700BFB41E002008B54FF476
:10177000807200210FF02CFB0022C0F80021C0F87D
:101780000421C0F8082108BD2DE9F047194C1A4F73
:10179000276000254FF47A78C4E90158202604F127
:1017A0002400C4E90565E5614FF00109FFF7DEFF9C
:1017B000284684F8349101F0E9FA8246484601F05F
:1017C000E5FA0E4CFF2384F82100C4E9015804F126
:1017D00024002760C4E90565E56184F820A084F849
:1017E000223084F82330FFF7C1FF84F83451BDE87C
:1017F000F08700BFE817002050440200B016002018
:10180000002070477047704710B5D0F88C452CB158
:10181000236820465B689847A468F8E710BD38B590
:10182000D0F88C450D4634B1236820469B68294684
:101830009847A468F7E738BD004870471045020094
:1018400010B5054B0360044605F089FD204605F000
:101850009FFD204610BD00BF9044020010B5044615
:10186000FFF7EEFF20464FF4B26107F04DFB204634
:1018700010BDF7B5D0F88C4505460E460023A4B13F
:1018800023683146DF680DF1030201AB2046B847FB
:101890009DF803100429034605D0019A284604F058
:1018A000C3FF03B0F0BDA468E9E7019A9DF80310F7
:1018B000F4E770B505460E4622B10021BDE8704040
:1018C00004F0B4BDD0F88C455CB1236800221B69DC
:1018D00031462046984710B101212846EEE7A4681A
:1018E000F2E72146F9E770B5D0F88C450E4605467B
:1018F00000213CB12368314620465B699847A468C3
:101900000146F6E72846BDE8704004F089BEF8B508
:10191000D0F88C4505460E4617463CB12368204654
:101920009B693A4631469847A468F6E72846012164
:10193000BDE8F84004F0D2BE70B5002186B0044680
:1019400005F06AF90023ADF8063023898DF81030D0
:101950001B0AA188E2888DF811304FF4897540F296
:101960000123ADF80450ADF81230022540F2031304
:10197000EF268DF807508DF809508DF80C100125D1
:10198000090A8DF80E20ADF81430120A04F10A038A
:101990008DF808608DF80A508DF80B008DF80D1049
:1019A0008DF80F2001AD05AE1C462A4603CAB2428F
:1019B00018605960154603F10803F6D112881A80A1
:1019C000204606B070BDF8B5002406460D462746F1
:1019D00030460FF0D5FDA04207D9335D05F814302D
:1019E00005EB440301345F70F2E7400000F0FE00B5
:1019F000F8BD38B5D0F88C55044635B12B6828466B
:101A00001B6A984710B9AD68F7E7284640F20233E1
:101A1000A4F8483504F24A51FFF7D5FF94F8483549
:101A2000184484F8480504F5A96038BD40F2023333
:101A300010B500F20A510446A0F808350548FFF732
:101A4000C2FF94F80835184484F8080504F5A1602D
:101A500010BD00BF7C44020040F2023310B50446C2
:101A6000A0F8C83400F2CA40FFF7F2FB94F8C8347B
:101A7000184484F8C80404F5996010BD2DE9FF41AD
:101A800000238DF80A3090F888351B4A8DF808300D
:101A9000012301928DF809303222C0238DF80B30DA
:101AA0008DF80C2001AB044600F54E7803CBC4F84A
:101AB0003803C8F8041088F80820D4F88C65092584
:101AC0008EB1336800211B6830469847478805F57A
:101AD0004E73093F00F109013A46E0180FF07AF819
:101AE0003D44B668ECE784F83A5340462D1284F83A
:101AF0003B5304B0BDE8F0810902FFFF73B5044613
:101B00000D46164607F034FF4FF4807300930146EC
:101B100033462A46204605F047F8024B236020460C
:101B200002B070BD9044020010B5D0F88C35044668
:101B3000A3B9C0F88C1594F888350B7194F88835E2
:101B40004A79134484F888350B6808465B6A9847DD
:101B5000238918442081012010BD13469A68002A69
:101B6000FBD19960E7E71FB5044605F017F8014679
:101B7000684604F0A1F94021684604F019FAD4F847
:101B80008C4534B123682046DB6969469847A468D0
:101B9000F7E7684604F097F904B010BD10B50446A5
:101BA000FFF7E1FF2046BDE8104004F067BF0000EA
:101BB00010B50D4C2378BFF35B8FDB0712D42046A2
:101BC00006F09AFF70B148F25A0242F241310748DA
:101BD000FFF794FF204606F0B1FF054A0549034888
:101BE00006F077FF014810BD2019002024190020BD
:101BF000000200204118010010B5FFF7D9FF03686B
:101C0000BDE810405B6F184710B5FFF7D1FF0368C0
:101C1000BDE810409B6F184710B5FFF7C9FF036878
:101C2000BDE81040DB6F184704F002BB04F0C0BAF7
:101C300004F0EEBA704770477047436A93F8780033
:101C40007047D0F824017047012070470048704762
:101C5000784602002DE9F04F044697B00F464B221C
:101C6000002103A80FF0B4F8D4F82431267994F8B1
:101C70000EA094F80C90002B06F10105637B0193F4
:101C800014BF05200020EDB2002F40F0978040F2F5
:101C90000923ADF80C304FF48173ADF81030802378
:101CA0008DF8133032238DF8143008238DF8153059
:101CB0000B2301218DF816308DF8250040F2022308
:101CC00042F205404FF0240C4FF0090E04274B223E
:101CD000ADF818308DF8211002238DF82410ADF8DE
:101CE00026004FF0100805208DF82A108DF82D10D1
:101CF0008DF82F104FF0030B06218DF80E208DF874
:101D000017608DF81A308DF81DE08DF81F608DF882
:101D100022308DF823308DF82B008DF82CC08DF8F3
:101D200031C08DF832308DF833108DF834008DF8D5
:101D300035C08DF81E708DF829808DF82EB08DF885
:101D400030708DF8361007218DF839108DF8491054
:101D500044F20201ADF84C1040F20751ADF85010BA
:101D60001D349DF804108DF837608DF838508DF8CB
:101D70003A008DF842508DF84A008DF852108DF8D7
:101D8000533044F20306402340F6022503A92046BF
:101D90008DF83BA0ADF83C608DF83F808DF840E0B9
:101DA0008DF84170ADF844508DF84B908DF854305B
:101DB0000EF010FF204617B0BDE8F08F0020FAE7C4
:101DC00038B505460A4B45F8D03B0446FFF7F0FE10
:101DD00005F0C5FA284604F085F904F17C0004F00A
:101DE00081F904F1700004F07DF9204638BD00BF90
:101DF0003846020010B50446FFF7E2FF20464FF4D4
:101E0000947107F081F8204610BDFFF705BF000070
:101E100010B5034B0360044603F0D4FF204610BD09
:101E20005845020010B50446FFF7F2FF204628216E
:101E300007F06AF8204610BD10B5034B0360044656
:101E400003F0C0FF204610BD2845020010B504462F
:101E5000FFF7F2FF2046342107F056F8204610BD68
:101E600010B5034B0360044603F0ACFF204610BDE1
:101E70004045020010B50446FFF7F2FF2046382126
:101E800007F042F8204610BD38B51C4B0D461968C6
:101E9000C0F80F1099889B7943750446A0F8131079
:101EA00040220221284604F079F8402220730221C2
:101EB000284604F078F8402260730321284604F095
:101EC0006DF8A073284603F0FFFF20B9AF220C493C
:101ED0000C4806F02DFA002304F18502C4E93223F0
:101EE00004F1D90284F8783084F8843084F8D8304A
:101EF000C4F81C21C4F8203138BD00BF744502006D
:101F0000134602001E4602002DE9F34104460E4628
:101F10001546FFF781FEF28823799A4237D1002DCA
:101F200035D17778012F2ED1F378202B27D1328924
:101F3000072A24D104F10F0804F11605294640466A
:101F40000EF016FED0B1D4F81630C4F80F30207C55
:101F5000E17B638BA4F8133001EB0021607CE57C0E
:101F6000237F009501EB00412568A07C637501EBA0
:101F70000061237D627D6D6B2046A8473D46F37866
:101F8000212B08BF0125284602B0BDE8F0810025BD
:101F9000F9E710B50446FFF73FFEFFF709FE217B86
:101FA00005F082F804F18503C4F8C8300023C4F8B2
:101FB000CC3084F8843004F17C0004F048F894F8C4
:101FC00084302BB923682046DB6BBDE810401847EE
:101FD00010BD000070B50446FFF71EFED4F8205176
:101FE0002DB140F2DD120F490F4806F0A1F904F1BE
:101FF000D903C4F81C31FFF7DBFD617B04F0B0FFAF
:1020000084F8D850C4F8200104F1D00004F01FF87F
:1020100094F8D8302BB9236820469B6BBDE87040FC
:10202000184770BD134602008045020010B4D0E985
:10203000013401686210E40701EB020048BF8A58CE
:102040005DF8044B48BFD35818470000F0B504466C
:1020500087B002ADFFF7E0FD0026FFF7A9FDA17BE9
:10206000009503234022059604F022FD2846FFF741
:1020700021F9FFF79DFD164B217B164F009540225D
:10208000CDE9033602230597029404F011FD28469A
:10209000FFF710F9FFF78CFD0F4B617B0095402295
:1020A000CDE9033602230597029404F001FD28468A
:1020B000FFF700F9FFF77CFD4023D4F81C21617B7A
:1020C00004F0EEFE012084F8D80007B0F0BD00BF98
:1020D000931F010068450200D51F010038B5022397
:1020E0004371002383600C4B044640F8703B154657
:1020F00003F0A0FF04F17C0003F09CFF04F1D0008A
:1021000003F098FFC4F82451FFF752FD2146FFF772
:102110000BFD204638BD00BF3846020070B50446AE
:102120000D46FFF779FD84F87850002D3ED194F8E4
:10213000843033B1FFF73CFD217B04F089FD84F846
:10214000845004F1850304F17C0600253046C4F870
:10215000C830C4F8CC5003F07AFF304603F070FF6B
:1021600028B9154915484FF4A27206F0E1F894F821
:10217000D83033B1FFF71CFD217B04F069FD84F8F2
:10218000D85004F1D903C4F81C3104F1D005002360
:102190002846C4F8203103F05AFF284603F050FFC8
:1021A00020B94FF4A77204490548DEE704F1700036
:1021B000BDE8704003F04BBF134602008E4502009D
:1021C0009F45020010B50446FFF726FD204600217A
:1021D000BDE81040FFF7A2BF38B50D460446FFF733
:1021E0001BFD042D05D020460021BDE83840FFF737
:1021F00095BF38BDF8B5164604460D461F46FFF795
:102200000BFD04233370EA8823799A4225D169783B
:10221000012922D1EA78212A08D0222A0BD0202AAB
:102220004FF000001BD13070163401E031700F34D4
:102230003C600720F8BDAB8813F0010308BF1946C6
:102240002046FFF76BFFAB8803F00103E366AB8822
:1022500003F00203A366022333700020EAE703239E
:102260003370E7E710B58AB00446FFF7C5FC68464F
:1022700003F09CFD0A4B0093694604F17000099439
:1022800003F0FDFE2046FFF7BFFC064B00211A6855
:10229000684603F0D7FD6846FFF7BAFD0AB010BDE7
:1022A000584502007C45020070B58EB015460446C4
:1022B0000E46FFF7A1FC01A803F078FD0E4B0C952C
:1022C00001A9002504F17C000193CDE90A468DF8AF
:1022D000345003F0D4FE2046FFF796FC074B294606
:1022E0001A6801A803F0AEFD01A89DF83440FFF77D
:1022F000A3FD20460EB070BD284502007C450200BB
:1023000010B50446FFF788FC94F884307BB9D4F804
:10231000CC3063B1FFF74CFCD4F8CC30217B04F116
:10232000850204F05DFE10B1012384F8843010BDF5
:102330002DE9F8431E460446894690469DF82070D4
:10234000FFF75AFC0023336094F87830E3B194F837
:102350008430CBB9D4F8CC50C5F14005454528BFF1
:102360004546B8F1000F05D02A464946D4F8C800C2
:102370000EF030FCD4F8CC302B44C4F8CC303560AF
:1023800017B12046FFF7BCFF2046BDE8F843FFF732
:102390003BBCF0B50446406A90F8785085B0012601
:1023A0002DB984F830503546284605B0F0BD04AB51
:1023B000002743F8047DD4E90A120096FFF7B8FF1E
:1023C0000399E36AA26A5B1A0A44E362A26213B940
:1023D00084F83060E8E7606AFFF792FF3D46E3E784
:1023E0002DE9F0431C4691B0904606468946FFF71A
:1023F00003FC002C08BF01AC4FF00005256002A8CB
:102400000CBF0127002703F0D1FC104B029302A957
:1024100006F1D000CDE90D84CDE90B698DF83C7053
:102420008DF83D5003F02BFE3046FFF7EDFB084BD7
:1024300029461A6802A803F005FD02A89DF83D4050
:10244000FFF70EFD204611B0BDE8F08340450200C5
:102450007C45020010B5D0F8203104466BB990F8E5
:10246000D83053B9FFF7A4FB402304F1D902617BB4
:1024700004F016FD012384F8D83010BD70B51E4657
:1024800004460023336094F878300846EBB194F8A2
:10249000D830D3B9D4F82051D4F81C11954228BFB4
:1024A00015462A460EF096FB3560D4F81C31D4F858
:1024B00020212B44551BC4F81C31C4F8205125B9E8
:1024C0002046BDE87040FFF7C5BF70BD37B5044674
:1024D000406A90F878502DB984F835500125284687
:1024E00003B030BD02AB002243F8042DD4E90A1238
:1024F000FFF7C4FF0199A26A0A44A262226B136823
:102500000B441360E36A01995B1A94F83410E36298
:1025100009B9126802B91BB9012384F83530DEE726
:10252000606AFFF797FF0025D9E76FF01500704745
:1025300000290CBF6FF01800002070470120704781
:102540006FF0150070476FF015007047112070474D
:1025500070477047704703689B6C1847A0F5A070E0
:10256000F9E770477047704770470368184710B520
:102570000446012000F042FC94F8780010BDA0F55C
:10258000A070F4E738B54FF0FF320123FF210B486C
:102590000B4D06F02FFE00F013FC044695F8783042
:1025A0001BB1012000F02AFCF8E700F009FC001B39
:1025B000C728F6D9BDE83840FEF75CBE6C21002084
:1025C000B41E002007B502AB012243F8041D1946D2
:1025D000FFF76AFE18B1019803B05DF804FB4FF0F5
:1025E000FF30F9E7A0F59470FFF7ECBF07B502A93B
:1025F000002301F8013D0122FFF7F2FE20B19DF812
:10260000070003B05DF804FB4FF0FF30F9E7A0F5D9
:102610009470FFF7EBBF2DE9F84304468846174650
:102620001E46089DFFF7F8FAD4F87092B9F1000F32
:1026300004D02B46324639464046C847C4F860822B
:10264000C4F86472C4F86862C4F86C52BDE8F883D8
:1026500070B50646FFF7E0FA06F51D740025D6F8BA
:10266000B432AB4208D92046103454F8043C1BB1B4
:102670001B6898470135F2E770BD0000B0F5966F12
:1026800003D10121014806F097BD70476C2100205D
:1026900010B4D0E9013401686210E40701EB0200D4
:1026A00048BF8A585DF8044B48BFD358184700000C
:1026B000114B03F1780270B50360C0F8282103F1D3
:1026C000D802E8330446C0F82C21C0F8403100F5A8
:1026D0001D7600F52D75AE4204D0103D2846FEF75C
:1026E000E9FDF8E704F5947005F0F6FA2046FFF7E7
:1026F00067FB204670BD00BFB8460200A0F594708D
:10270000FFF7D6BFA0F59670FFF7D2BF10B504460D
:10271000FFF7CEFF20464FF42E7106F0F5FB204662
:1027200010BDA0F59670FFF7F1BFA0F59470FFF70C
:10273000EDBF0000F7B5044615461F460E4607F0EC
:1027400017F9BDF824300193BDF8203000932A46D4
:102750003B4601462046FFF7C1FC002104F594707A
:1027600005F090FA4FF47A73C4F84831174B2360A0
:1027700003F178020025C4F8282103F1D802E833D8
:10278000C4F82C21C4F84451C4F840314FF480728D
:10279000294604F5A8700EF01BFBC4F85052C4F88B
:1027A0008052C4F85452C4F89052C4F85852C4F835
:1027B000A052C4F8B052C4F8B452C4F8705216B162
:1027C0002046FFF74FFD204603B0F0BDB84602009B
:1027D00038B50546FFF710FA95F8D8304BB9D5F85B
:1027E0002041402C28BF40242846FFF70DFA204600
:1027F00038BD0024F8E7000070B5044686B0FFF746
:10280000FBF92D4BC4F870322046FFF7FDF92B4B36
:1028100005932B4B03932046002302940493FFF768
:10282000EBF9D4F8B452032D13D804EB05166B1C46
:1028300006F51D76C4F8B4323046FEF73BFD04EBD6
:102840000515059BC5F880321BB15B6802A93046AF
:1028500098472046FFF7D8F902A8FEF72BFDBC20C9
:1028600006F03EFB0026174B036005463146066125
:10287000403006F045FD05F1540006F0E1FC124B36
:1028800000934FF4807233462846182106F0D0FD9D
:102890000E4B05930E4BC4F85C5202A92846CDE9B5
:1028A0000236049606F0D0FD02A8FEF703FD20468E
:1028B000FEF772FE06B070BD7D2601009046020054
:1028C00099150100F85C0200A84602009C4602002F
:1028D00085250100A0F5A070FFF78EBF90F8780065
:1028E0007047000037B50F4C0F4D204606F05AFCDC
:1028F0002A460E49204606F0ECF80D4C42F212032F
:102900000122CDE90032002211464FF4F85320464F
:10291000FFF710FF07492A46204603B0BDE83040C4
:1029200006F0D7B86C21002000020020BF91010002
:10293000B41E0020B126010008B50CF083FF2DE97C
:10294000F04F027D012A85B005460E4640F090808A
:1029500000214FF0FF3B04460B465F4694F804C04D
:1029600048B2BCF1000F75D194F805C0BCF1000F5E
:1029700070D1B7F1FF3F1BBF01335BB20123384673
:10298000934201DD1A4683460131082904F102040D
:102990005ED1002402EB0B03A1460293CB4502DC7F
:1029A000029B4B4559DC95F8058095F804A04FEA49
:1029B00028170AF00F03FAB25FEA2A1A019208F008
:1029C0000F0870D05FFA8AF1BAF1090FD4BF303125
:1029D00057313046039300F0B4F8039B0444092BAD
:1029E00094BF03F1300103F157013046039300F027
:1029F000A8F80444BAF1000F02D1039B03B94FB108
:102A0000092F019FD4BF30375737F9B2304600F055
:102A100098F80444B8F1090F94BF08F1300108F1A7
:102A20005701304600F08DF8B9F1070F044404D087
:102A30003A21304600F085F8044409F10109B9F162
:102A4000080F05F10205A9D1204605B0BDE8F08FB9
:102A5000074683E74FF0FF3096E7CB45EDD1BBF15A
:102A6000000FE5D13A21304600F06BF80444DFE76F
:102A700000F1100700F11309002417F8011B0A22C6
:102A8000304600F09BF82E218046304600F059F881
:102A9000B94540440444F0D10A22E97C304600F0B4
:102AA0008DF80444D0E7002B99D1A8E710B5054B69
:102AB0000360044601751022002104300EF088F9ED
:102AC000204610BDD447020070B5074D05608374E1
:102AD00000259DF81030057545608560C56001745E
:102AE0004274C37470BD00BFD447020007B5012112
:102AF0000648FFF7DBFF002300931A4619460448F7
:102B0000FFF7E2FF03B05DF804FB00BF8021002067
:102B10009821002070B5044608460D460EF030FDA1
:102B200023680246294620465B68BDE87040184786
:102B300009B1FFF7EFBF0846704708B5FFF7F8FF88
:102B400008BD03681B6818470149FFF7E3BF00BFD2
:102B50002B5A020038B50546FFF7EAFF044628461F
:102B6000FFF7F2FF204438BD70B58AB00D460AA9C0
:102B7000002301F8043D012A98BF0A22B5FBF2F4B4
:102B800002FB1456F3B2092E94BF30333733DBB255
:102B9000254601F8013D002CF0D1FFF7C9FF0AB02E
:102BA00070BD10B42AB903685DF8044B1B68C9B244
:102BB0001847D2B25DF8044BFFF7D6BFFFF7F1BF5D
:102BC0002DE9F84F0A9E0746002E10461946B8BF59
:102BD000022614461D460BF0B5F928B14C4938467B
:102BE000BDE8F84FFFF796BF25F000494FF0FF32E0
:102BF000484B204649460BF0A5F948B94FF0FF3243
:102C0000444B204649460BF07FF908B94249E6E7B4
:102C10004FF06042414B204629460BF089F908B13C
:102C20003F49DCE74FF060423E4B204629460BF01F
:102C300061F90028F4D100220023204629460BF038
:102C400059F9D0B12D213846FFF77BFF05F100433C
:102C500082461D463449DFF8D8904FF0000B002023
:102C60004FF000085FFA8BF3B3420BF1010B06DA69
:102C700042464B460AF0F6FFF4E78246EAE7024690
:102C80000B46204629460AF00DFD0D4604460BF082
:102C90006FF90A22014680463846FFF765FF8244F5
:102CA0009EB340460AF03AFE02460B4620462946AD
:102CB0000AF0F6FC04460D4638461C49DFF87090D1
:102CC000FFF728FF4FF00008824416F1FF361CD3AF
:102CD0004B464246204629460AF09AFE0D460446D7
:102CE0000BF046F90A22014683463846FFF73CFFBF
:102CF000824458460AF012FE02460B4620462946F8
:102D00000AF0CEFC04460D46DFE75046BDE8F88FDA
:102D1000D8470200FFFFEF7FDC470200FFFFEF41D3
:102D2000E0470200FFFFEFC10000E03FF05002006B
:102D300000002440FFF744BF37B5069900910546CF
:102D4000FFF73EFF04462846FFF7FEFE204403B08F
:102D500030BD000010B500F053F8FEF729FAFEF779
:102D600027FFFEF71BFF4FF4E1310648064CFFF743
:102D700043FDFDF743FBFDF77BFA002CFBD0AFF3DF
:102D80000080F8E7B41E00200000000010B50446E3
:102D9000FEF70BFA84423BBF2401024B4FF0FF3099
:102DA000185710BD0402002010B5044602F060FE62
:102DB000204610BD10B5044602F05AFE204610BD54
:102DC00007B50749684602F090FE4FF47A72002377
:102DD000DDE900010BF0ECF803B05DF804FB00BF87
:102DE000B021002007B50449684602F07EFE009835
:102DF00003B05DF804FB00BFC821002006F0B0BAA4
:102E000008B5044802F03EFE0348BDE8084002F061
:102E100039BE00BFC8210020B021002038B50A4CBF
:102E20000A4D204602F09EFE2046094C09492A46DA
:102E300005F04FFE204602F0A0FE2A462046064935
:102E4000BDE8384005F045BEC82100200002002042
:102E5000B0210020B52D0100A92D010008B590F981
:102E600000305A1C04D121220E490F4805F060FAA7
:102E7000012259B11F2B86BF03F01F030B494FF0EE
:102E8000A04102FA03F3C1F8083508BD1F2B86BF25
:102E900003F01F0305494FF0A04102FA03F3C1F804
:102EA0000C35F2E76B48020079480200000300503D
:102EB0002DE9F8431C4D4FEA001805EB08020446C3
:102EC000D0680F4610B1012106F01EF82046FFF72A
:102ED0005DFF8146012006F003F800260670494692
:102EE000044604F01AFB05EB0803012FDC6010D048
:102EF00006D3022F12D0204602F0EAFA012103E0A5
:102F0000204602F0E5FA31462046BDE8F84302F0DB
:102F1000EBBA2046BDE8F84302F0CEBA204602F0F4
:102F2000D7FA0321F0E700BF04020020F7B50646F8
:102F30000F46FEF73AF986421BD20F4D05EB0615F8
:102F4000EC687CB93046FFF721FF0646012005F00A
:102F5000C7FF00230446037001220097314604F0A6
:102F6000E3FAEC603946204603B0BDE8F040FFF7D5
:102F700075BF03B0F0BD00BF040200201EF0040FB7
:102F80000CBFEFF30880EFF30980816911F8021C90
:102F9000002932D101B590E80F10E047BDE800509C
:102FA0008CE80300244B93E80600914208BF704769
:102FB0001A6041B91EF0100F10D1204B186820F094
:102FC000010018600AE02CE9F00F1EF0100F08BF96
:102FD0002CED108A81F822E0C1F838C0906B92F88D
:102FE000221061F0FF0E1EF0100F08BFB0EC108A27
:102FF000B0E8F00F80F309887047114A13689942CE
:10300000FAD801B552F821C00FC8E047BDE800501A
:10301000CCF80000704701B501F02CFBBDE8014081
:10302000EFF3098CBEE701B501F0E8FABDE8014015
:10303000EFF3098CB6E700003804002034EF00E01D
:103040004449020008B5014630B96FF0030000F0B2
:10305000EEF96FF0030008BD132001F09FFE30B9B8
:103060004FF0FF3000F0E3F94FF0FF30F3E70020BE
:10307000F1E7000008B5EFF305834BB9EFF31083D8
:1030800033B9EFF311831BB9DFF814C000DF08BDBB
:103090006FF0050000F0CBF96FF00500F7E700BF17
:1030A00045300100EFF310832BB9EFF311800038A6
:1030B00018BF0120704701207047000010B503467B
:1030C00028B30468806860B110F0030202D1DB68A5
:1030D0000F2B25D86FF00801002002F0A5F8002082
:1030E00014E0DB68002BF5D1104BD3F8900080B1D1
:1030F00000F0F9FBB0B1012383700023C0E9023373
:10310000F3220A4B02700A4A44605A6610BD044614
:10311000EAE7D3F880000122102100F070FBE9E714
:103120001346E9E76FF00401D7E700BF240400204D
:103130000532010010B5044610B10378F32B07D017
:1031400020466FF0030102F06FF86FF0030010BD2E
:10315000836863B1204601F0E9FB00226FF00201B1
:1031600001F074FDA0680028F4D101F04DFC0023AB
:103170002370A378DB0701D40020E8E7064BD3F8DF
:103180009000214610B100F0CBFBF5E7D3F88000AA
:1031900000F068FBF0E700BF24040020930710B59F
:1031A00002F0010422D400F10C0384B153E8000FB3
:1031B00000EA01028A4203D0BFF32F8F002005E00E
:1031C00020EA010243E8002404B1EFE710BD53E810
:1031D000000F084203D1BFF32F8F002005E020EA43
:1031E000010243E8002404B1F1E7EFE7C06801EA17
:1031F00000031CB1994218BF0020E7E7002B08BF6D
:103200000020E3E7F8B58468054604B9F8BD94F8F2
:103210002320616AA7682846FFF7C0FF064638B139
:10322000204601F08CFB00223146204601F00EFDC5
:103230003C46EAE7F8B50D4617461E46044620B15F
:103240000378F32B01D1002907DA20466FF0030140
:1032500001F0EAFF6FF00300F8BDFFF79FFF0028C1
:10326000FAD186B13146432001F098FD40B1074BB9
:103270005E692046314601F047FB756286F823708F
:103280006FF00100E8E76FF00200E5E7240400209A
:103290002DE9F041064620B10378F32B01D1002936
:1032A00009DA6FF00301304601F0BEFF6FF003054D
:1032B0002846BDE8F08100F10C0353E8002F42EAF4
:1032C000010543E8005000B1F7E7B4681CB9204697
:1032D00001F09AFBECE794F82320616AD4F80880A7
:1032E0003046FFF75BFF074678B194F823309B0721
:1032F00056BF656A054620EA0505204601F01FFB1A
:1033000000223946204601F0A1FC4446DEE70000D9
:1033100008B50246EFF3058333B100206FF00501D5
:1033200001F082FF002008BDFFF7BCFE0028F4D1A9
:10333000DFF808C0104600DFF5E700BFBD30010030
:1033400038B502460D46EFF305834BB192B96FF0E5
:103350000301104601F068FF6FF00304204638BDFA
:10336000FFF7A0FE0028F1D1DFF830C0104600DFE3
:103370000446F3E71378F32BE9D1002DE7DB02F1E4
:103380000C0353E8001F41EA050443E8004000B184
:10339000F7E7104601F0B6F9E0E700BF913201000F
:1033A000F8B504460E4617461D46EFF3058343B1B4
:1033B0008CB920466FF0030101F036FF6FF0030077
:1033C000F8BDFFF76FFE0028F2D1DFF82CC02046D1
:1033D0002B4600DFF4E72378F32BEAD1002DE8D168
:1033E000002EE6DB3A4631462046FFF7D7FE00289E
:1033F00008BF6FF00200E3E73532010008B502466E
:10340000EFF305833BB110466FF0050101F00CFFAF
:103410006FF0050008BDFFF745FE0028F3D1DFF887
:1034200008C0104600DFF5E73531010070477047EE
:10343000EFF310832BB9EFF31180003818BF012090
:103440007047012070470000064BDA6A3AB1D06934
:103450005B6C1BB11B69984228BF184670474FF040
:10346000FF30F5E72404002070B5464C237A012B89
:1034700000F0858033B14FF0FF3001F0C9FE4FF00E
:10348000FF3070BD404DD5E90B61EB68E3652B8AD9
:10349000A4F854303046AB68236400F099F908B1C1
:1034A000C4F88060D5E90561304600F091F908B9AB
:1034B000D4F880606667D5E90761304600F088F986
:1034C00008B9D4F88060A667D5E90961304600F0F4
:1034D0007FF908B9D4F88060E6676E6B3EB1D6E933
:1034E00002233168304600F0DDF9C4F88460AE6B29
:1034F0003EB1D6E902233168304600F0D3F9C4F872
:103500008860EE6B3EB1D6E902233168304600F0A8
:10351000C9F9C4F88C602E6C3EB1D6E9022331683B
:10352000304600F0BFF9C4F890606E6C3EB1D6E949
:1035300002233168304600F0B5F9C4F89460AE6CEF
:103540003EB1D6E902233168304600F0ABF9C4F849
:103550009860EE6C3EB1D6E902233168304600F047
:10356000A1F9C4F89C602D6D3DB1D5E9022329680D
:10357000284600F097F9C4F8A050012323720020D8
:103580007FE700BF24040020D448020070B5274C18
:10359000237A012B07D06FF0060001F039FE4FF0BF
:1035A000FF35284670BD01F03BFC10B94FF0FF30ED
:1035B000F3E71F4AFF2382F8223092F8223063F0AB
:1035C000FF03DB4304D1D268C2F30222531C08E09C
:1035D000D268B3FA83F3C3F12003C2F30222934209
:1035E000F4D9FE2202FA03F3124E114A124970680E
:1035F000DBB2D37701F068FE05460028D6D101F092
:10360000B7FE206101F0A0FE0C4801F08FF901F037
:10361000F3F93368DB074CBF0223032383F31488D9
:10362000BFF36F8F02232372BBE700BF2404002087
:1036300000ED00E0D44802002730010040040020E3
:1036400010B50F4C237A022B13D101F085FE012314
:103650006372BFF34F8F0B4A5168C90042BF4FF0EE
:1036600000615160A37204232372BDE81040FFF78C
:10367000EBBE6FF0070001F0CBFD002010BD00BFD6
:103680002404002000ED00E038B51D4C237A042B03
:10369000054634D1FFF7D8FEE26A85422CBF00F11F
:1036A000FF332B4612B1D069C01AD061626C12B1DF
:1036B0001069C01A1061E26813441544E360E368BE
:1036C0009D4213D102230020237201F09DF90023B3
:1036D0006372BFF34F8FA27A22B1A372094B4FF0EE
:1036E00080525A60BDE8384001F02EBE0133E360DD
:1036F00001F048F9236D002BE1D09847DFE738BD92
:103700002404002000ED00E0704738B504460D4663
:10371000FFF78CFE29462046BDE8384001F03ABD4F
:1037200008B5FFF7F1FFEFF3058333B16FF0050044
:1037300001F06EFD6FF0050008BDFFF779FE00286F
:10374000F4D1DFF808C000DFF6E700BF69340100FC
:1037500008B5EFF3058333B16FF0050001F058FDB4
:103760006FF0050008BDFFF763FE0028F4D1DFF815
:1037700008C000DFF6E700BF8D35010008B5EFF3A4
:1037800005832BB16FF0050001F042FD002008BD5C
:10379000FFF74EFE0028F5D1DFF804C000DFF6E7A2
:1037A0004136010008B50246EFF305832BB1BDE8B1
:1037B00008406FF0050001F02BBDFFF739FE00282F
:1037C000F5D1DFF808C0104600DF08BD89360100DA
:1037D00010B5034688B1084310F007000DD1172932
:1037E0000AD9196008391022CC189C605A605850C8
:1037F00099684A60D860012010BD0020FCE770B5D0
:10380000034668B361B3032A2AD80F3121F00706B3
:1038100000F10804214624684D68601A25F003056C
:10382000401B864203D920680028F3D170BD5D6833
:10383000186835445D600344083B5868854288BF7A
:103840005D604B6832431BB94A6001F10800EDE747
:1038500023F00303C818CC50426008600830E5E745
:103860000020E3E710B5034680B1C9B1A1F1080417
:1038700000F108020021A24209D1506820F003049F
:103880005868001B586041B95160012010BD106894
:1038900011460028FAD00246EDE713680B60F4E702
:1038A0000846F3E730B5C0B189B1C2B1CBB100244D
:1038B000C0E9014202FB01F41D190160C3604361CC
:1038C00005611846013904D1A41A1951012108468D
:1038D00030BD851805602846F4E70146F7E7114634
:1038E000F5E71946F3E710B5034608B9002010BD07
:1038F00000F1140252E8000F10B9BFF32F8F04E05B
:10390000016842E8001404B1F4E70028EED0043363
:1039100053E8002F511C43E8001404B1F8E7E6E730
:1039200030B5F0B1C3688B421BD803698B4218D9FC
:1039300000F114031A680A60BFF35F8F53E8002F89
:103940000C689442F6D143E8001505B1F2E7043063
:1039500050E8003F5A1E40E8002101B1F8E700207E
:1039600030BD6FF00300FBE7EFF310832BB9EFF3EB
:103970001180003818BF0120704701207047D1E93D
:10398000013223B19A608A681AB153607047C262EB
:10399000F9E70363704700002DE9F84F89460746B1
:1039A00038B131B1B0FA80F1B9FA89F30B441F2B69
:1039B00008DC6FF00301002001F04CFC00242046DD
:1039C000BDE8F88F09F1030828F0030808F10C0896
:1039D00008FB00FB002A5AD09468D2F800A0D2E974
:1039E00004653CB1A10702D1D368332B0DD86FF029
:1039F0000801E0E7D368002BF9D126B3B20701D163
:103A0000AB4522D96FF00901D5E7B6B9002DF9D140
:103A10002A4B0022D86F5946FFF7F1FE06460028D0
:103A200044D13DB1254BD3F8A0002146002838D021
:103A3000FFF776FF6FF00401BDE7B307E2D1AB45B6
:103A4000E0D800250DE0002DDCD11C4BD3F8A00000
:103A500000B3FFF748FF04460028EBD00125002EF5
:103A6000D6D0FA2323700023C4E90993C4E90B33A9
:103A7000A36042463346A570C4F804A0394604F159
:103A80000C00FFF70FFF0D4B0D4A1A6797E79246A0
:103A90001646DAE7D3F8800001223421FFF7AFFEA3
:103AA000D9E7D3F88000FFF7DDFEC3E75A460021CF
:103AB0000DF08EF945F00205D3E700BF2404002085
:103AC000513B010010B500F1280353E8002F12B953
:103AD000BFF32F8F04E0511E43E8001404B1F4E754
:103AE0000AB9002010BDC06A01220028F9D0811C4B
:103AF000D1E84F3FC1E8442F04B1F9E7DBB2002B16
:103B0000F0D08068F1E7036B30B5E3B1CD780024E5
:103B1000DA78AA420FD31A46C1E901248AB191602A
:103B2000A4B16160283050E8003F5A1C40E80021F1
:103B300001B1F8E730BD5A681C46002AECD01346A4
:103B4000E6E7C162ECE7C1E90133C1620163E9E77D
:103B5000F8B5877804468FB3C56801460027284624
:103B6000FFF70DFF277005F10C042046FFF7D8FE84
:103B7000AB68002B48D02046FFF7B5FE044600286E
:103B800042D0284600F0D2FE3A460646394601F0B9
:103B90005DF8304600F026FF6A6A8168064604F147
:103BA0000C000DF017F8F9232370A770F368E37089
:103BB00021462846BDE8F840FFF7A5BF8568AB68F9
:103BC000002BF5D05B78832BF2D1284600F0AEFEB7
:103BD0003A460646394601F039F8304600F002FF11
:103BE00006466A6A806804F10C010CF0F3FFF36882
:103BF0000BB1E2781A7000232370214605F10C0006
:103C0000BDE8F840FFF78CBEF8BD00002DE9F0419B
:103C10000E4617469846044618B10378FA2B00D191
:103C200041B920466FF0030101F014FB6FF003006F
:103C3000BDE8F0818368BBB15B78832B14D100F0C1
:103C400075FE01220546002101F000F8284600F02B
:103C5000C9FE0546626A806831460CF0BBFFEB681E
:103C600003B11F700020E3E704F10C00FFF73BFEF7
:103C7000054670B13146626A0C300CF0ABFFF92397
:103C80002B700023AB70EF7029462046FFF73BFFF7
:103C9000E8E7B8F1000F11D04146932001F07EF81B
:103CA00010B96FF00100C3E7064B2046596900F0D8
:103CB0002BFEEFF30983C3E90267F2E76FF002001E
:103CC000B6E700BF240400202DE9F0410F46164658
:103CD0009846044618B10378FA2B00D141B9204622
:103CE0006FF0030101F0B6FA6FF00300BDE8F08158
:103CF000FFF7E8FE054600283AD001462046FFF7C8
:103D00003EFE626A05F10C0138460CF063FF0EB10D
:103D1000EB783370002704F10C062F7029463046EB
:103D2000FFF7FEFDA3680BB90020DFE73046FFF781
:103D3000DAFD05460028F7D0204600F0F7FD3946A9
:103D40000646012200F082FF304600F04BFE626A18
:103D50008168064605F10C000CF03CFFF9232B703E
:103D6000AF70F368EB7029462046FFF7CCFEDBE727
:103D7000B8F1000F11D04146832001F00FF810B9BF
:103D80006FF00100B2E7064B2046596900F0BCFD18
:103D9000EFF30983C3E90276F2E76FF00200A5E7CB
:103DA0002404002008B5064B08219A6ED86EFFF750
:103DB000F3FD044BD864B0FA80F04009404208BDDE
:103DC000D4480200240400202DE9F04106460F46A5
:103DD00090461C46EFF305834BB196B930466FF021
:103DE000030101F037FA6FF00300BDE8F081FFF73F
:103DF000BBFD0028F1D1DFF84CC03046234600DF80
:103E0000F3E73378FA2BE9D1002FE7D0002CE5D186
:103E100006F10C00FFF767FD054680B1726A39466E
:103E20000C300CF0D7FEF9232846C5E901762B703B
:103E3000AC7085F8038000F065FC2046D5E76FF094
:103E40000200D2E70D3C0100F8B504460F461646C5
:103E50001D46EFF3058343B18CB920466FF0030193
:103E600001F0F8F96FF00300F8BDFFF77DFD0028C1
:103E7000F2D1DFF848C020462B4600DFF4E7237874
:103E8000FA2BEAD1002FE8D0002DE6D12046FFF72B
:103E900019FE054670B100F10C01626A38460CF05B
:103EA00099FE0EB1EB7833702846EC6000F02AFCE6
:103EB0000020D9E76FF00200D6E700BFC93C01003F
:103EC000EFF310832BB9EFF31180003818BF0120F6
:103ED000704701207047000038B5044640B3D0E970
:103EE0000025806860B110F0030302D1E1681B294E
:103EF00027D86FF00801002001F09CF9002016E09F
:103F0000E368002BF5D11446104BD3F8940088B128
:103F1000FFF7E9FCB8B1012383700023C0E9023345
:103F2000C0E90433F5220270C5704460037638BDE1
:103F30000546E9E7D3F8800001221C21FFF75FFC6A
:103F4000E8E71446E8E76FF00401D5E72404002011
:103F5000294B70B55D6904460E4635B96FF007010F
:103F600001F068F94FF0FF3070BD10B10378F52B08
:103F700007D020466FF0030101F05CF96FF00300F9
:103F8000F2E7037E53B9C0E90353EB6A436103B11F
:103F90001861EC62012323760020E5E7C278D1079F
:103FA0000ED5C168A9420BD1FF2B06D16FF00F01CE
:103FB00001F040F96FF00200D6E70133DBB2EAE727
:103FC000002EF7D093070AD5E06895F9203090F9D4
:103FD00020209A4203DA80F8203000F0B9FC314604
:103FE000532000F0DBFE10B96FF00100BCE729465A
:103FF000204600F089FCF7E7240400202F4B5A6983
:1040000070B5044632B96FF0070101F013F94FF0B3
:10401000FF3070BD10B10378F52B07D020466FF04C
:10402000030101F007F96FF00300F2E7037E33B9F3
:104030006FF00E0101F0FEF86FF00200E9E7C168D1
:10404000914202D06FF00D01F4E7013BDBB2037641
:104050000BB10020DDE743690BB1016919612169EA
:10406000E9B14B6192F92130D56AD5B982F8203097
:10407000A36883B1204600F059FC06462A4629462B
:1040800000F0E4FDF36A6361C4E9036503B11C61F8
:104090000123F4622376002000F0B6FCD9E7D36256
:1040A000E0E7E978890706D5A96821B191F92010E0
:1040B0008B42B8BF0B466D69D7E700BF24040020D0
:1040C00010B5044610B10378F52B07D020466FF0E9
:1040D000030101F0AFF86FF0030010BD037EBBB128
:1040E0006369C0680BB122691A612269BAB1536170
:1040F00090F92120C36AA3B990F92030934203D0EC
:1041000080F8202000F024FCA068B0B900F07CFC0E
:1041100000232370A378DB0718D40020DDE7C362F7
:10412000E6E7D978890706D5996821B191F9201079
:104130008A42B8BF0A465B69DDE7204600F0F6FB1D
:1041400000226FF0020100F081FDDDE7064BD3F89D
:104150009400214610B1FFF7E3FBDEE7D3F88000BF
:10416000FFF780FBD9E700BF240400202DE9F041D0
:104170000446002601270CB9BDE8F081E378D4F8A5
:1041800014801B0712D5A36826767BB1204600F069
:10419000CDFB00220546114600F058FDEB6A636135
:1041A000C4E9035603B11C61EC6227764446E2E79A
:1041B00010B4C3789B071DD5C06890F92120C36A4D
:1041C000DC78A40709D59C688C4208BF8C6824B1B0
:1041D00094F92040A242B8BF22465B69002BEFD180
:1041E00090F92030934205D080F820205DF8044BF0
:1041F00000F0AEBB5DF8044B7047000008B5024606
:10420000EFF3058333B100206FF0050101F012F8E0
:10421000002008BDFFF754FE0028F4D1DFF808C0E5
:10422000104600DFF5E700BFD93E010008B50246A1
:10423000EFF305833BB110466FF0050100F0FAFF84
:104240006FF0050008BDFFF73BFE0028F3D1DFF853
:1042500008C0104600DFF5E7513F010008B50246EF
:10426000EFF305833BB110466FF0050100F0E2FF6C
:104270006FF0050008BDFFF723FE0028F3D1DFF83B
:1042800008C0104600DFF5E7FD3F010008B5024613
:10429000EFF305833BB110466FF0050100F0CAFF54
:1042A0006FF0050008BDFFF70BFE0028F3D1DFF823
:1042B00008C0104600DFF5E7C1400100EFF31083AE
:1042C0002BB9EFF31180003818BF0120704701208F
:1042D00070470C30D0E85F3F13B9BFF32F8F04E075
:1042E0005A1EC0E8512F01B1F4E798B2003818BF48
:1042F0000120704730B500F10C02C189D2E85F3F60
:10430000994202D8BFF32F8F04E05C1CC2E8554FDE
:1043100005B1F3E7C0899BB2984294BF0020012009
:1043200030BD000070B54FF6FE730D46411E994238
:10433000044601D8A84206D26FF00301002000F025
:104340007FFF002070BD12B39068166840B110F076
:10435000030302D1D2680F2A0DD86FF00801EDE7F0
:10436000D368002BF9D1104BD3F8980088B1FFF730
:10437000BAFAA8B1012383700023F62283600A4BA6
:1043800002700A4A46608581C4819A66DAE7164659
:10439000E9E7D3F8800001221021FFF730FAE8E7BF
:1043A0006FF00401CBE700BF24040020614401004A
:1043B00010B5044610B10378F62B07D020466FF0F5
:1043C000030100F03DFF6FF0030010BD83683BB1B7
:1043D00000F0ACFA0122002100F038FC0020F4E7E4
:1043E000FFF788FF0028F9D120466FF0100100F098
:1043F00027FF6FF00200E8E710B5044610B103781C
:10440000F62B07D020466FF0030100F019FF6FF084
:10441000030010BD836863B1204600F087FA0022D4
:104420006FF0020100F012FCA0680028F4D100F047
:10443000EBFA00232370A378DB0701D40020E8E720
:10444000064BD3F89800214610B1FFF769FAF5E75B
:10445000D3F88000FFF706FAF0E700BF240400203D
:10446000836810B504465BB1FFF733FF40B12046C7
:1044700000F05CFA0022BDE81040114600F0E6BBF7
:1044800010BD000038B50D46044610B10378F62B78
:1044900007D020466FF0030100F0D2FE6FF003005A
:1044A00038BDFFF716FF68B975B12946632000F0E3
:1044B00075FC20B1064B2046596900F025FA6FF0D3
:1044C0000100EDE70020EBE76FF00200E8E700BF36
:1044D0002404002010B50446EFF3058333B1002017
:1044E0006FF0050100F0ACFE002010BDFFF7E6FE06
:1044F0000028F4D1DFF808C0204600DFF5E700BF50
:104500002543010010B502460C46EFF3058343B185
:1045100082B910466FF0030100F092FE6FF00300C5
:1045200010BDFFF7CBFE0028F2D1DFF824C0104603
:1045300000DFF5E71378F62BEBD1002CE9D110461C
:10454000FFF7C7FE00280CBF6FF002000020E7E76E
:104550008544010010B50446EFF3058343B184B9E7
:1045600020466FF0030100F06BFE6FF0030010BDFA
:10457000FFF7A4FE0028F2D1DFF830C0204600DFAC
:10458000F5E72378F62BEBD12046FFF7B3FE20B1F9
:10459000204600F0B7F80020E9E720466FF0100150
:1045A00000F04EFE6FF00200E1E700BFB1430100F2
:1045B00008B50246EFF305833BB110466FF00501E5
:1045C00000F03EFE6FF0050008BDFFF777FE002803
:1045D000F3D1DFF808C0104600DFF5E7F94301002A
:1045E00010B5D0E85F3F5A1C914200D80022C0E8C5
:1045F000542F04B1F5E798B210BD000038B51C4C3B
:1046000000F0B0FEE3680133E36000F0BBF9002086
:1046100000F0FAF9236D03B19847226C32B3A36915
:10462000E06BD969984202D0E36301B9DA61DA69D3
:10463000C2B9237A022B19D1656ABDB1E36B95F932
:10464000202093F920309A4210D1284600F077F9C3
:10465000E06B00F08FF9284600F0CEF9236CE5639B
:10466000EB6103E0013ADA61002AE2D038BD00BF15
:104670002404002070B5224C04F1560504F15A06BA
:10468000B4F85410D5E85F3F13B9BFF32F8F04E09F
:104690005A1EC5E8502F00B1F4E79BB25BB3304619
:1046A000FFF79EFFE36D53F8200020B30378F13B42
:1046B000082BE5D801A252F823F000BFE146010023
:1046C00081460100E7460100814601008146010064
:1046D000EB460100EF46010081460100F346010070
:1046E000236E9847CCE7636EFBE7A36EF9E7E36EB2
:1046F000F7E7236FF5E7BDE87040002000F084B9CC
:104700002404002070B5164C0546B4F8541004F18A
:104710005602D2E85F3F994202D8BFF32F8F04E0E0
:10472000581CC2E8560F06B1F3E79BB2994205D870
:1047300029460220BDE87040FEF7E7BF04F15800AB
:10474000FFF74EFFE36D43F82050637A23B9054B22
:104750004FF080525A6070BD0123A372FBE700BF87
:104760002404002000ED00E0EFF310832BB9EFF3F9
:104770001180003818BF012070470120704703786E
:10478000F12B00D07047C068F9E7000010B5C4698C
:10479000621CD0E904310CD103B1596142691AB1EC
:1047A00013610023436101E0074A13630023C361DF
:1047B00010BD1BB1DA6959612244DA614269002AED
:1047C000EED1014AD362F1E72404002010B50A4A71
:1047D00090F9201001234370536A1C321BB193F9E6
:1047E00020408C4205DCC0E90232906003B1D86001
:1047F00010BD1A469B68F1E724040020014B58695C
:10480000704700BF2404002010B500230380837884
:104810009A07044608D513F0100F016B0E4B0FD00A
:10482000D3F88400FFF77CF8A378DB0712D50A4B96
:10483000D3F88800214638B1BDE81040FFF770B8C2
:10484000586FFFF70FF8EFE7BDE81040D3F880008E
:10485000FFF708B810BD00BF2404002008B500F021
:10486000FFFCDFF810C000DF4FF0FF31002000F048
:10487000D5FCFEE7B54C0100C278D207034601D44F
:10488000FFF7C2BF0422054942700022C2604A6B92
:10489000826002B1D0604B63704700BF24040020E7
:1048A000930710B502F0010422D400F1280384B16B
:1048B00053E8000F00EA01028A4203D0BFF32F8FB2
:1048C000002005E020EA010243E8002404B1EFE7FC
:1048D00010BD53E8000F084203D1BFF32F8F002013
:1048E00005E020EA010243E8002404B1F1E7EFE724
:1048F000806A01EA00031CB1994218BF0020E7E773
:10490000002B08BF0020E3E710B591F92020836851
:104910001BB193F92040944205DAC1E9023081606D
:1049200003B1D96010BD18469B68F1E70346806863
:1049300082689A6002B1D3600023C3607047C26886
:104940002AB18368936003B1DA600023C3607047C3
:1049500010B5044664B12378F12B07D0FFF7EFFFC1
:1049600001462046BDE81040FFF7CEBFE468F1E7FE
:1049700010BD00000123014643700148FFF7C4BF8A
:104980004004002038B5164DEC6A44B3E369013B9E
:10499000E36123BB6378732B06D009D8532B0BD06C
:1049A00003F0DF03432B0DD12046FFF7E8FE09E0BB
:1049B00003F0EF03832BF6E72046FFF7E0FE2146E6
:1049C000FFF7F6FB2046FFF7BAFFFFF7D3FF246996
:1049D00024B1E369002BDDD000236361EC6238BDB4
:1049E0002404002090F82230826B13F0100F14BFC3
:1049F000202060201044704702234370014B9861CF
:104A0000704700BF2404002070B5124D04462E7A72
:104A1000696990B9022E0FD16C6A6CB194F92020AB
:104A200091F920309A4207DD2046FFF788FF0846BB
:104A3000FFF7CCFE6670AC6170BD022E05D190F917
:104A4000202091F920309A42F1DC2046BDE87040E8
:104A5000FFF790BF240400202DE9F74F8046019115
:104A600040B96FF0030100F0D9FB0024204603B0E9
:104A7000BDE8F08F002A00F0A88094689769D2E919
:104A800000ABD2E9045644B1A10702D1D368432B4D
:104A900023D86FF008010020E5E7D368002BF8D198
:104AA000002D32D1002F3ED11827002E41D1614B6D
:104AB000D3F88800002800F08E80FEF714FF04462B
:104AC000002800F0A280002D40F0A9804FF00109DD
:104AD0004EB158480022314687E0B5B91FBB002EC1
:104AE0006ED1B9461827544A5248566DD0F88420E2
:104AF000002A79D01046FEF7F6FE054600287AD047
:104B000049F0100949F002031FE06A0700D116B905
:104B10006FF00A01BFE7002F52D07B1E372B08D958
:104B20006FF00B01B7E77B1E372BF9D8002E49D069
:104B3000002516F00703EBD1404AA6F14801914247
:104B4000E6D8002CB3D0002D62D0A3700023C4E9B6
:104B50000233C4E90433C4E90633C4E90933C4E9C0
:104B60000B35A6F1400340F2F1122B44C4E90E3894
:104B70002280334B84F803B07FB2FD22C4F804A036
:104B800084F8207084F82170628466632B602A4B5D
:104B90001B685B0745D4A36B3422002118460CF038
:104BA00017F9284A234BC0E90D284FF08072C263E1
:104BB000019A0262244A1A662046FFF725FF55E74C
:104BC0001827B6E774B9354671E792461546182797
:104BD000164693466BE7D3F8800001224421FEF786
:104BE0000EFE6CE7B1467EE73146406FFEF707FEEA
:104BF0000546002886D1B9F1000F06D00D4BD3F839
:104C00008800214630B1FEF78BFE6FF0040142E7C9
:104C1000A9465EE7D3F88000FEF724FEF5E70123FE
:104C200093E726F00302443ACC21281D0CF0D0F87B
:104C3000B1E700BF24040020D4480200B7FFFF7F83
:104C4000A52E5AE25D480100714C010038B50546B9
:104C50001446FFF7C7FE01602846FFF797FD1CB119
:104C6000BDE83840FFF7D0BEBDE83840FFF782BE50
:104C700010B54378332B04460CD1416A90F82320B9
:104C8000FFF70EFE014628B120460022BDE8104085
:104C9000FFF7DCBF10BD10B50446806918B10022D3
:104CA0001146FFF7D3FF6378232B02BFA3680022CE
:104CB0009A6110BD70B50F4C267A022E18D1636A26
:104CC000B3B16569E86AFFF751FA2846FFF7E3FFD9
:104CD00004F11C00FFF72AFE4670A061EFF3098380
:104CE000AB63002363612846BDE87040FFF7C4BD95
:104CF00070BD00BF2404002010B5044610B1037835
:104D0000F12B07D020466FF0030100F087FA6FF017
:104D1000030010BD437803F00F03022B1ED0032BBA
:104D20002BD0012B2ED1FFF70AFEE06AFFF71EFA07
:104D30002046FFF7B0FF6178022926D11548FFF71A
:104D4000F5FD154B41709861EFF30982A2630022D3
:104D50005A612046FFF790FD0020DAE70E4B1A7AE1
:104D6000022A02D15B6A002BDFD16FF002012046DC
:104D700000F054FA6FF00200CBE7FFF7E0FDFFF719
:104D800005FDD2E76FF00201F2E70020FFF73CFEDD
:104D9000DFE700BF400400202404002038B51E4C8B
:104DA000237A022B024634D1606AA0B163695A703B
:104DB0004A1C16D1226B002172B94FF0FF30C3E9B3
:104DC0000421D86159B10B611448FFF7AFFD0223EC
:104DD0004370A061012038BD11461269ECE72363DE
:104DE000F2E7E26A002012B1D569A9420BD2C3E909
:104DF0000420D96158B10361002AE5D0D06953611C
:104E0000401AD061E0E71046491B1269EBE7E36204
:104E1000F2E70020DFE700BF240400204004002068
:104E200038B50D4C0D48A26D0D4D0021FFF714FE55
:104E3000636EA8625BB1984758B9E26DE96C206E69
:104E4000FFF70AFEA864003818BF012038BD012012
:104E5000FCE70020FAE700BFD44802008D510100B2
:104E60002404002010B50446EFF3058333B100207D
:104E70006FF0050100F0D2F9002010BDFFF774FCBF
:104E80000028F4D1DFF808C0204600DFF5E700BFB6
:104E9000594A010008B5EFF3058313B1054B586972
:104EA00008BDFFF761FC0028F8D1DFF80CC000DF77
:104EB000F6E700BF24040020FD47010010B50446BA
:104EC00000F0DAF9EFF305833BB120466FF00501FE
:104ED00000F0A4F96FF0050010BDFFF745FC0028B5
:104EE000F3D1DFF808C0204600DFF5E7F94C0100F8
:104EF00030B50C4D6B6C002213B11C698C420AD981
:104F0000C0E9022301611BB11C699860641A1C612D
:104F10002AB1D06030BD1A46091BDB68ECE7686433
:104F2000F8E700BF240400202DE9F041184D6C6C17
:104F300054B323696E69013B23610127236913BBC5
:104F4000E3680BB1A2689A606B640023E86C1A46B0
:104F500004F11801FEF738FF58B1D5E90583214661
:104F600003206B61FEF7D1FB6B6913B9B04508BF35
:104F70000026E378012B09D161692046FFF7B8FFCD
:104F80006C6C002CDAD16E61BDE8F0816770F7E7D8
:104F90002404002008B5FEF705FF18B9034B044AA6
:104FA0001A6508BD4FF0FF30FBE700BF2404002066
:104FB000294F010007B504464FF0FF330022694630
:104FC0002046FEF741FF0028F6D1DDE90030984782
:104FD000F2E7000008B5094B094A1A60094B9B1A11
:104FE000094A1360094B0A4A1A600A4B9B1A0A4A7B
:104FF000136000F051F800F069F800BF9428002019
:1050000000FC0320000004209028002048AD002070
:1050100068B4002000FC032044AD00200E4838B5E1
:105020000E4B03600B250E4B45601C24C46083604F
:10503000FFF7E4F80B4B18600B480C4BC460C0E959
:1050400000350B4B8360FFF7D9F80A4B1860BDE8B9
:1050500038400BF0CDB900BF60280020BC490200E9
:10506000702800208C28002030280020C949020028
:10507000402800205C280020FDF76CBE024B4FF05A
:10508000FF311868FFF7D2B88C280020014B186850
:10509000FFF7E4B88C28002008B505F0CDF9BDE88D
:1050A000084000F011B87047704708B500F042F8AA
:1050B000FFF7F9FFFFF7B2FFFFF7F6FF03F04AFB38
:1050C000BDE80840FFF7D8BFFEF72ABB114C124BD2
:1050D00023614FF4004363614423E3600F4BA360FB
:1050E000182307B5A3610E480E4B2360224600210A
:1050F000FFF7B8FE034628B90B49009022460B483B
:1051000003F030FBFEF724FB0023094900931A4605
:10511000F5E700BF00A9002000290020B8280020E2
:10512000AB500100D3490200D84902001D010180A3
:10513000F44902001FB5064B0FCB6C4684E80F0004
:105140002046FFF75BF8034B186004B010BD00BFAA
:105150001C4A0200B428002073B506460C461546CA
:1051600003F0FAFA58B906342ABF064B064953F839
:105170002410002300933246284603F0F3FA02B0CD
:1051800070BD00BFE04B0200344B020008B500F0D8
:10519000F3F8000007B50023411E009302460023E8
:1051A000042919D8DFE801F003080C1014000C4999
:1051B0000C48012203F0D6FA0B490C480222F9E709
:1051C0000B490C480322F5E70B490C480422F1E790
:1051D0000B490C480522EDE70B490C48EAE700BFF4
:1051E0002C4A0200250102804D4A0200260102805D
:1051F000724A020027010280A74A020028010280A9
:10520000E24A02002A010280224B020000010280D1
:10521000014A0146FFF7A0BF31010180014AFFF7B3
:105220009BBF00BF32010180014AFFF795BF00BF5D
:1052300037010180014AFFF78FBF00BF33010180B2
:1052400011F1110F02D0024AFFF786BF704700BF6D
:1052500034010180014AFFF77FBF00BF38010180A0
:1052600010B5FFF717FE034B1B6813B1BDE81040E4
:10527000184710BD24A90020024B1B6803B1184732
:10528000704700BF24A90020024B987A003818BF4D
:10529000012070472404002008B5FEF76FFA074983
:1052A000002203F0F1FAC31C04D9054905488B22FA
:1052B00003F03EF8BDE80840FEF774BA89520100D9
:1052C0001B4C02002D4C0200B0F57A7F38B50D461C
:1052D00004D018491848322203F02AF802F044FD9D
:1052E000041E13DB04F1604303F56143E02283F8FD
:1052F00000232946204604F0AFFC204604F0B4FC0D
:1053000085420AD00B490D483F22E5E70C4B04F0DB
:105310000F021344E0221A76EBE7002C07DB094A60
:105320006109012304F01F04A34042F8213000204A
:1053300038BD00BF1B4C02005A4C0200674C0200F3
:10534000FCEC00E000E100E008B503F025FABDE860
:10535000084002F05FBD0000014B186802F02ABD52
:1053600078AC0020014B186802F016BD78AC002024
:1053700008B502F0F9FC08BD08B5024C236898474F
:10538000FCE700BFC804002003680BB108461847BB
:1053900070470000044B0022C3E900229A601A61A2
:1053A000024ADA60704700BF28A900208953010033
:1053B00038B504460D46002100F8011B10220BF001
:1053C00007FD6582204638BD08B542F60211024845
:1053D000FFF7EEFF08BD00BF3CA90020CB68C3600B
:1053E0000BB15B6818477047C36810B52BB9054906
:1053F00005484FF4FD7202F09BFFBDE810401B68AA
:10540000184700BFB84C0200C34C0200034B1A7887
:10541000034B53F8223003B118477047CC040020E7
:1054200050A90020074B1B785BB1074B0122C3F842
:105430000823064B5A78FF2A00D1FEE7044A128857
:105440005A70704768AA002000F0004064A900204C
:105450006AAA0020F8B50546064655F8044B8CB9F3
:105460000D4F386818B14FF0FF31FEF7DFFE34689A
:1054700024B9284603F0E4FE2C463560386808B1AC
:10548000FEF7ECFEAC4204D0044905488B2202F042
:105490004FFF2046F8BD00BFB4280020F34C0200A7
:1054A000024D0200036801221B69002118470368AE
:1054B00000221B691146184710B5044602F0E0FFB0
:1054C0002046012104F038FFBDE8104002F0EEBF95
:1054D00010B5044602F0D4FF2046002104F02CFF52
:1054E000BDE8104002F0E2BF38B504460D4602F0B8
:1054F000C7FF2946204604F0FDFEBDE8384002F013
:10550000D5BF70470246406830B490B1D2E903413C
:1055100001F001052CB965B100EB610003681C596D
:1055200003E000EB6100002DF8D12346916830BC08
:10553000184730BC7047000070B500F14C0690F978
:10554000DF2090F9DE100446304605F021FAD4E958
:1055500039530DB9DA070ED55A1004EB6300DB0797
:1055600048BFA35894F8EC1048BF5D5994F9ED205A
:1055700094F9EE30A847D4F8D810304605F01EFB59
:10558000224630460249BDE8704005F0F7BB00BF37
:105590001F5901002DE9F0411F46D0F8E0300446C4
:1055A0000E4615462BB12849284840F2351202F024
:1055B000BFFE274AC0E9392303681B68984784F86F
:1055C000EC6084F8ED5084F8EE70042E0CD8DFE81F
:1055D00006F0160311161A004FF0FF332A46012178
:1055E00004F14C0005F0A0FB236820465B68BDE891
:1055F000F04118472B464FF0FF320221F0E73B46BF
:105600002A463146ECE70120013584F804010AD02E
:1056100003F066FC0023054694F9ED10037001F0D9
:105620007CFFC4F8F05094F9EE300133DCD0012057
:1056300003F056FC0022054694F9EE10027001F0CA
:105640006FFFC4F8F450CFE73E4D02004D4D02000D
:10565000955501002DE9F04198461E4B03601E4B05
:10566000436000251D4B85600446C0E90555C0E92F
:1056700007550F461646C360858445634564A0F808
:1056800048506C22294600614C300BF0A1FB40F2DF
:105690000113A4F8DC304FF47F43A4F8EC30FF236F
:1056A0002046C4E93558C4E93855C4E93E55C4F824
:1056B000C45084F8DE7084F8DF60C4F8E85084F8E1
:1056C000EE30C4F8005184F80451FFF735FF20464E
:1056D000BDE8F081A84D02003955010005550100D3
:1056E00070B50646044656F84C3B0D461B68984775
:1056F0003046294605F062FA2368C4F8D85020469F
:105700005B68BDE8704018472DE9F04105469846B2
:1057100055F84C3B04460E4617461B6898474346CF
:1057200028463A46314605F0C9FA236820465B68A8
:10573000BDE8F0411847000038B50546044655F865
:105740004C3B1B689847284605F0CCFB94F8043185
:105750000546BBB1D4F8F430A3B193F900305A1C1C
:1057600004D111491148212202F0E2FD012278B949
:105770001F2B86BF0E4903F01F034FF0A0419A4034
:10578000C1F80825236820465B689847284638BD3D
:105790001F2B86BF064903F01F034FF0A0419A401C
:1057A000C1F80C25EEE700BF914D020079480200D8
:1057B0000003005038B50546044655F84C3B1B68BD
:1057C0009847284605F0AEFB94F80431054643B1EE
:1057D000D4F8F00004F060FD002814BF002505F0A7
:1057E0000105236820465B689847284638BD036852
:1057F0002DE9F04105461B6816460F46984795F877
:10580000DC30340103B1AEB195F8DD300BB1012EBF
:1058100010D0B8342C44BC4206D02046FBF74AFDD9
:1058200039462046FFF7DAFD2B6828465B68BDE85D
:10583000F0411847B83402F023FE2C44FA68E368BC
:1058400005F14C089AB10BB903F050F8A74206D005
:105850002046FBF72FFD39462046FFF7BFFD01220A
:105860003146404605F09AFA02F020FEDCE70BB123
:1058700003F052F82046FBF71DFD0022E260EFE73F
:1058800030B51B4B036085B000252A4669460446A7
:105890000395FFF7ACFF6846FBF70CFD0122694654
:1058A00020460395FFF7A3FF6846FBF703FD94F836
:1058B000DC3013B994F8DD301BB104F14C0005F075
:1058C00047F904F1C800FBF7F5FC04F1B800FBF759
:1058D000F1FC04F13800FBF7EDFC04F12800FBF7C4
:1058E000E9FC206A08B102F079F8204605B030BD25
:1058F000A84D020010B50446FFF7C2FF20464FF442
:10590000847103F001FB204610BD4C3005F072BAE3
:1059100010B54C300C4605F0AFFA204610BD00EB38
:105920000110B83008B5C3680BB1FFF75DFD08BDC5
:10593000036870B504461B680D46984794F8DC3040
:10594000AB422FD0BDB904F14C0602F099FD2A46B6
:105950002946304605F022FAD4F8C430ABBB02F039
:10596000A5FD002384F8DC3094F8DD30D3B930464F
:1059700005F0EEF816E094F8DD304BB9A2686368E4
:10598000511004EB6200D20744BF6258D3589847C5
:1059900002F076FDD4F8C43053B902F087FD01233C
:1059A00084F8DC30236820465B68BDE87040184707
:1059B00004F1B800FFF718FD02F098FF0122002162
:1059C00004F14C0005F0EAF9E7E702F0A5FFC6E7AD
:1059D000036870B504461B680D46984794F8DD309F
:1059E000AB422FD0BDB904F14C0602F049FD2A4666
:1059F0000121304605F0D2F9D4F8D430ABBB02F027
:105A000055FD002384F8DD3094F8DC30D3B93046FE
:105A100005F09EF816E094F8DC304BB9A268636894
:105A2000511004EB6200D20744BF6258D358984724
:105A300002F026FDD4F8D43053B902F037FD01232B
:105A400084F8DD30236820465B68BDE87040184765
:105A500004F1C800FFF7C8FC02F048FF012211461C
:105A600004F14C0005F09AF9E7E702F055FFC6E7AC
:105A7000437D10B504461BB1037D0BB102F04CFF12
:105A8000204610BD13B5044601A801F0AFFF637DA9
:105A900053B9237D0BB102F029FF206901F066FFA5
:105AA000C4E900010123637501A801F0A5FF02B05C
:105AB00010BD37B504460D4601A801F097FF00233D
:105AC0000022C4E900236B7D4BB1286901F04EFF31
:105AD000D5E90032C01A61EB0201C4E9000101A856
